{
    "contractName": "Faucet",
    "abi": [
        {
            "inputs": [],
            "name": "addFunds",
            "outputs": [],
            "stateMutability": "payable",
            "type": "function"
        },
        {
            "inputs": [
                {
                    "internalType": "uint256",
                    "name": "",
                    "type": "uint256"
                }
            ],
            "name": "funders",
            "outputs": [
                {
                    "internalType": "address",
                    "name": "",
                    "type": "address"
                }
            ],
            "stateMutability": "view",
            "type": "function"
        },
        {
            "inputs": [],
            "name": "getAllFunders",
            "outputs": [
                {
                    "internalType": "address[]",
                    "name": "",
                    "type": "address[]"
                }
            ],
            "stateMutability": "view",
            "type": "function"
        },
        {
            "stateMutability": "payable",
            "type": "receive"
        }
    ],
    "bytecode": "608060405234801561001057600080fd5b50610215806100206000396000f3fe6080604052600436106100385760003560e01c80636fbbb55d14610044578063a26759cb1461006f578063dc0d3dff146100b557600080fd5b3661003f57005b600080fd5b34801561005057600080fd5b506100596100ed565b6040516100669190610179565b60405180910390f35b6100b3600080546001810182559080527f290decd9548b62a8d60345a988386fc84ba6bc95484008f6362f93160ef3e5630180546001600160a01b03191633179055565b005b3480156100c157600080fd5b506100d56100d03660046101c6565b61014f565b6040516001600160a01b039091168152602001610066565b6060600080548060200260200160405190810160405280929190818152602001828054801561014557602002820191906000526020600020905b81546001600160a01b03168152600190910190602001808311610127575b5050505050905090565b6000818154811061015f57600080fd5b6000918252602090912001546001600160a01b0316905081565b6020808252825182820181905260009190848201906040850190845b818110156101ba5783516001600160a01b031683529284019291840191600101610195565b50909695505050505050565b6000602082840312156101d857600080fd5b503591905056fea2646970667358221220a51baaab80db7d19e05f0d5d888c16f8594c8fde7b5dcd6fb91c3bae1d97547064736f6c634300080a0033",
    "sourcePath": "/home/husky_dusky/Documents/Development/blockchain/faucet/contracts/Faucet.sol",
    "compiler": {
        "name": "solc",
        "version": "0.8.10+commit.fc410830"
    },
    "functionHashes": {
        "addFunds()": "a26759cb",
        "funders(uint256)": "dc0d3dff",
        "getAllFunders()": "6fbbb55d"
    },
    "gasEstimates": {
        "creation": {
            "codeDepositCost": "106600",
            "executionCost": "153",
            "totalCost": "106753"
        },
        "external": {
            "addFunds()": "48573",
            "funders(uint256)": "4636",
            "getAllFunders()": "infinite"
        }
    }
}