{
  "contractName": "Faucet",
  "abi": [
    {
      "inputs": [],
      "stateMutability": "nonpayable",
      "type": "constructor"
    },
    {
      "inputs": [],
      "name": "numberOfFunders",
      "outputs": [
        {
          "internalType": "uint256",
          "name": "",
          "type": "uint256"
        }
      ],
      "stateMutability": "view",
      "type": "function",
      "constant": true
    },
    {
      "inputs": [],
      "name": "owner",
      "outputs": [
        {
          "internalType": "address",
          "name": "",
          "type": "address"
        }
      ],
      "stateMutability": "view",
      "type": "function",
      "constant": true
    },
    {
      "stateMutability": "payable",
      "type": "receive",
      "payable": true
    },
    {
      "inputs": [],
      "name": "addFunds",
      "outputs": [],
      "stateMutability": "payable",
      "type": "function",
      "payable": true
    },
    {
      "inputs": [
        {
          "internalType": "uint256",
          "name": "withdrawAmount",
          "type": "uint256"
        }
      ],
      "name": "withdraw",
      "outputs": [],
      "stateMutability": "nonpayable",
      "type": "function"
    },
    {
      "inputs": [
        {
          "internalType": "address",
          "name": "newOwner",
          "type": "address"
        }
      ],
      "name": "transferOwnership",
      "outputs": [],
      "stateMutability": "nonpayable",
      "type": "function"
    },
    {
      "inputs": [
        {
          "internalType": "uint8",
          "name": "index",
          "type": "uint8"
        }
      ],
      "name": "getFundersAtIndex",
      "outputs": [
        {
          "internalType": "address",
          "name": "",
          "type": "address"
        }
      ],
      "stateMutability": "view",
      "type": "function",
      "constant": true
    },
    {
      "inputs": [],
      "name": "getAllFunders",
      "outputs": [
        {
          "internalType": "address[]",
          "name": "",
          "type": "address[]"
        }
      ],
      "stateMutability": "view",
      "type": "function",
      "constant": true
    }
  ],
  "bytecode": "0x608060405234801561001057600080fd5b5033600160006101000a81548173ffffffffffffffffffffffffffffffffffffffff021916908373ffffffffffffffffffffffffffffffffffffffff160217905550610a51806100616000396000f3fe6080604052600436106100745760003560e01c8063a26759cb1161004e578063a26759cb146100ff578063dc79a7fc14610109578063f2fde38b14610134578063f388b2661461015d5761007b565b80632e1a7d4d146100805780636fbbb55d146100a95780638da5cb5b146100d45761007b565b3661007b57005b600080fd5b34801561008c57600080fd5b506100a760048036038101906100a291906105be565b61019a565b005b3480156100b557600080fd5b506100be610231565b6040516100cb91906106db565b60405180910390f35b3480156100e057600080fd5b506100e961032a565b6040516100f6919061070c565b60405180910390f35b610107610350565b005b34801561011557600080fd5b5061011e610469565b60405161012b9190610736565b60405180910390f35b34801561014057600080fd5b5061015b6004803603810190610156919061077d565b61046f565b005b34801561016957600080fd5b50610184600480360381019061017f91906107e3565b610543565b604051610191919061070c565b60405180910390f35b8067016345785d8a00008111156101e6576040517f08c379a00000000000000000000000000000000000000000000000000000000081526004016101dd90610893565b60405180910390fd5b3373ffffffffffffffffffffffffffffffffffffffff166108fc839081150290604051600060405180830381858888f1935050505015801561022c573d6000803e3d6000fd5b505050565b60606000805467ffffffffffffffff8111156102505761024f6108b3565b5b60405190808252806020026020018201604052801561027e5781602001602082028036833780820191505090505b50905060005b600054811015610322576002600082815260200190815260200160002060009054906101000a900473ffffffffffffffffffffffffffffffffffffffff168282815181106102d5576102d46108e2565b5b602002602001019073ffffffffffffffffffffffffffffffffffffffff16908173ffffffffffffffffffffffffffffffffffffffff1681525050808061031a90610940565b915050610284565b508091505090565b600160009054906101000a900473ffffffffffffffffffffffffffffffffffffffff1681565b600360003373ffffffffffffffffffffffffffffffffffffffff1673ffffffffffffffffffffffffffffffffffffffff16815260200190815260200160002060009054906101000a900460ff166104675760008060008154809291906103b590610940565b919050559050336002600083815260200190815260200160002060006101000a81548173ffffffffffffffffffffffffffffffffffffffff021916908373ffffffffffffffffffffffffffffffffffffffff1602179055506001600360003373ffffffffffffffffffffffffffffffffffffffff1673ffffffffffffffffffffffffffffffffffffffff16815260200190815260200160002060006101000a81548160ff021916908315150217905550505b565b60005481565b600160009054906101000a900473ffffffffffffffffffffffffffffffffffffffff1673ffffffffffffffffffffffffffffffffffffffff163373ffffffffffffffffffffffffffffffffffffffff16146104ff576040517f08c379a00000000000000000000000000000000000000000000000000000000081526004016104f6906109fb565b60405180910390fd5b80600160006101000a81548173ffffffffffffffffffffffffffffffffffffffff021916908373ffffffffffffffffffffffffffffffffffffffff16021790555050565b6000600260008360ff16815260200190815260200160002060009054906101000a900473ffffffffffffffffffffffffffffffffffffffff169050919050565b600080fd5b6000819050919050565b61059b81610588565b81146105a657600080fd5b50565b6000813590506105b881610592565b92915050565b6000602082840312156105d4576105d3610583565b5b60006105e2848285016105a9565b91505092915050565b600081519050919050565b600082825260208201905092915050565b6000819050602082019050919050565b600073ffffffffffffffffffffffffffffffffffffffff82169050919050565b600061064282610617565b9050919050565b61065281610637565b82525050565b60006106648383610649565b60208301905092915050565b6000602082019050919050565b6000610688826105eb565b61069281856105f6565b935061069d83610607565b8060005b838110156106ce5781516106b58882610658565b97506106c083610670565b9250506001810190506106a1565b5085935050505092915050565b600060208201905081810360008301526106f5818461067d565b905092915050565b61070681610637565b82525050565b600060208201905061072160008301846106fd565b92915050565b61073081610588565b82525050565b600060208201905061074b6000830184610727565b92915050565b61075a81610637565b811461076557600080fd5b50565b60008135905061077781610751565b92915050565b60006020828403121561079357610792610583565b5b60006107a184828501610768565b91505092915050565b600060ff82169050919050565b6107c0816107aa565b81146107cb57600080fd5b50565b6000813590506107dd816107b7565b92915050565b6000602082840312156107f9576107f8610583565b5b6000610807848285016107ce565b91505092915050565b600082825260208201905092915050565b7f43616e6e6f74207769746864726177206d6f7265207468616e20302e3120455460008201527f4800000000000000000000000000000000000000000000000000000000000000602082015250565b600061087d602183610810565b915061088882610821565b604082019050919050565b600060208201905081810360008301526108ac81610870565b9050919050565b7f4e487b7100000000000000000000000000000000000000000000000000000000600052604160045260246000fd5b7f4e487b7100000000000000000000000000000000000000000000000000000000600052603260045260246000fd5b7f4e487b7100000000000000000000000000000000000000000000000000000000600052601160045260246000fd5b600061094b82610588565b91507fffffffffffffffffffffffffffffffffffffffffffffffffffffffffffffffff82141561097e5761097d610911565b5b600182019050919050565b7f4f6e6c79206f776e65722063616e2063616c6c20746869732066756e6374696f60008201527f6e21000000000000000000000000000000000000000000000000000000000000602082015250565b60006109e5602283610810565b91506109f082610989565b604082019050919050565b60006020820190508181036000830152610a14816109d8565b905091905056fea2646970667358221220dafbe93bd653d7ba3e3b85507820ed7e962265660761773da8bad5cca296436264736f6c634300080a0033",
  "immutableReferences": {},
  "source": "// SPDX-License-Identifier: MIT\r\npragma solidity >=0.4.22 <0.9.0;\r\n\r\ncontract Faucet {\r\n    uint256 public numberOfFunders;\r\n    address public owner;\r\n    mapping(uint256 => address) lutFunders;\r\n    mapping(address => bool) funders;\r\n\r\n    constructor() {\r\n        owner = msg.sender;\r\n    }\r\n\r\n    modifier limitWithdraw(uint256 withdrawAmount) {\r\n        require(\r\n            withdrawAmount <= 100000000000000000,\r\n            \"Cannot withdraw more than 0.1 ETH\"\r\n        );\r\n        _;\r\n    }\r\n\r\n    modifier onlyOwner() {\r\n        require(msg.sender == owner, \"Only owner can call this function!\");\r\n        _;\r\n    }\r\n\r\n    receive() external payable {}\r\n\r\n    function addFunds() external payable {\r\n        if (!funders[msg.sender]) {\r\n            uint256 index = numberOfFunders++;\r\n            lutFunders[index] = msg.sender;\r\n            funders[msg.sender] = true;\r\n        }\r\n    }\r\n\r\n    function withdraw(uint256 withdrawAmount)\r\n        external\r\n        limitWithdraw(withdrawAmount)\r\n    {\r\n        payable(msg.sender).transfer(withdrawAmount);\r\n    }\r\n\r\n    function transferOwnership(address newOwner) external onlyOwner {\r\n        owner = newOwner;\r\n    }\r\n\r\n    function getFundersAtIndex(uint8 index) external view returns (address) {\r\n        return lutFunders[index];\r\n    }\r\n\r\n    function getAllFunders() external view returns (address[] memory) {\r\n        address[] memory _funders = new address[](numberOfFunders);\r\n        for (uint256 i = 0; i < numberOfFunders; i++) {\r\n            _funders[i] = lutFunders[i];\r\n        }\r\n        return _funders;\r\n    }\r\n}\r\n\r\n// just for testing\r\n//\r\n// let instance = await Faucet.deployed()\r\n// instance.addFunds({from: accounts[0], value: \"2000000000000000000\"})\r\n// instance.addFunds({from: accounts[1], value: \"2000000000000000000\"})\r\n// instance.withdraw(\"50000000000000000\", {from :accounts[1]})\r\n// instance.getFunderAtIndex(0)\r\n// instance.getAllFunders()\r\n// let balance = web3.eth.getBalance(accounts[1]).then(value => web3.utils.fromWei(value))\r\n",
  "sourcePath": "/home/husky_dusky/Documents/Development/blockchain/faucet/contracts/Faucet.sol",
  "compiler": {
    "name": "solc",
    "version": "0.8.10+commit.fc410830.Emscripten.clang"
  },
  "schemaVersion": "3.4.3",
  "updatedAt": "2021-12-06T20:30:50.965Z",
  "networkType": "ethereum",
  "devdoc": {
    "kind": "dev",
    "methods": {},
    "version": 1
  },
  "userdoc": {
    "kind": "user",
    "methods": {},
    "version": 1
  }
}